{
  "contractName": "Consumer",
  "abi": [
    {
      "inputs": [],
      "payable": false,
      "stateMutability": "nonpayable",
      "type": "constructor"
    },
    {
      "anonymous": false,
      "inputs": [
        {
          "indexed": false,
          "internalType": "uint256",
          "name": "id",
          "type": "uint256"
        },
        {
          "indexed": false,
          "internalType": "string",
          "name": "name",
          "type": "string"
        },
        {
          "indexed": false,
          "internalType": "string",
          "name": "description",
          "type": "string"
        },
        {
          "indexed": false,
          "internalType": "address",
          "name": "owner",
          "type": "address"
        },
        {
          "indexed": false,
          "internalType": "bool",
          "name": "approved",
          "type": "bool"
        },
        {
          "indexed": false,
          "internalType": "bool",
          "name": "purchased",
          "type": "bool"
        }
      ],
      "name": "ApprovedEwaste",
      "type": "event"
    },
    {
      "anonymous": false,
      "inputs": [
        {
          "indexed": false,
          "internalType": "uint256",
          "name": "id",
          "type": "uint256"
        },
        {
          "indexed": false,
          "internalType": "string",
          "name": "name",
          "type": "string"
        },
        {
          "indexed": false,
          "internalType": "uint256",
          "name": "price",
          "type": "uint256"
        },
        {
          "indexed": false,
          "internalType": "string",
          "name": "description",
          "type": "string"
        },
        {
          "indexed": false,
          "internalType": "address payable",
          "name": "owner",
          "type": "address"
        },
        {
          "indexed": false,
          "internalType": "bool",
          "name": "approved",
          "type": "bool"
        },
        {
          "indexed": false,
          "internalType": "bool",
          "name": "purchased",
          "type": "bool"
        }
      ],
      "name": "EwasteCreated",
      "type": "event"
    },
    {
      "anonymous": false,
      "inputs": [
        {
          "indexed": false,
          "internalType": "uint256",
          "name": "id",
          "type": "uint256"
        },
        {
          "indexed": false,
          "internalType": "string",
          "name": "name",
          "type": "string"
        },
        {
          "indexed": false,
          "internalType": "uint256",
          "name": "price",
          "type": "uint256"
        },
        {
          "indexed": false,
          "internalType": "string",
          "name": "description",
          "type": "string"
        },
        {
          "indexed": false,
          "internalType": "address payable",
          "name": "owner",
          "type": "address"
        },
        {
          "indexed": false,
          "internalType": "bool",
          "name": "approved",
          "type": "bool"
        },
        {
          "indexed": false,
          "internalType": "bool",
          "name": "purchased",
          "type": "bool"
        }
      ],
      "name": "EwastePurchased",
      "type": "event"
    },
    {
      "constant": true,
      "inputs": [],
      "name": "EwasteCount",
      "outputs": [
        {
          "internalType": "uint256",
          "name": "",
          "type": "uint256"
        }
      ],
      "payable": false,
      "stateMutability": "view",
      "type": "function"
    },
    {
      "constant": true,
      "inputs": [
        {
          "internalType": "uint256",
          "name": "",
          "type": "uint256"
        }
      ],
      "name": "ewastes",
      "outputs": [
        {
          "internalType": "uint256",
          "name": "id",
          "type": "uint256"
        },
        {
          "internalType": "string",
          "name": "name",
          "type": "string"
        },
        {
          "internalType": "uint256",
          "name": "price",
          "type": "uint256"
        },
        {
          "internalType": "string",
          "name": "description",
          "type": "string"
        },
        {
          "internalType": "address payable",
          "name": "owner",
          "type": "address"
        },
        {
          "internalType": "bool",
          "name": "approved",
          "type": "bool"
        },
        {
          "internalType": "bool",
          "name": "purchased",
          "type": "bool"
        }
      ],
      "payable": false,
      "stateMutability": "view",
      "type": "function"
    },
    {
      "constant": true,
      "inputs": [],
      "name": "name",
      "outputs": [
        {
          "internalType": "string",
          "name": "",
          "type": "string"
        }
      ],
      "payable": false,
      "stateMutability": "view",
      "type": "function"
    },
    {
      "constant": false,
      "inputs": [
        {
          "internalType": "string",
          "name": "_name",
          "type": "string"
        },
        {
          "internalType": "uint256",
          "name": "_price",
          "type": "uint256"
        },
        {
          "internalType": "string",
          "name": "_description",
          "type": "string"
        }
      ],
      "name": "createEwaste",
      "outputs": [],
      "payable": false,
      "stateMutability": "nonpayable",
      "type": "function"
    },
    {
      "constant": false,
      "inputs": [
        {
          "internalType": "uint256",
          "name": "_id",
          "type": "uint256"
        }
      ],
      "name": "approveEwaste",
      "outputs": [],
      "payable": false,
      "stateMutability": "nonpayable",
      "type": "function"
    },
    {
      "constant": false,
      "inputs": [
        {
          "internalType": "uint256",
          "name": "_id",
          "type": "uint256"
        }
      ],
      "name": "purchaseEwaste",
      "outputs": [],
      "payable": true,
      "stateMutability": "payable",
      "type": "function"
    }
  ],
  "bytecode": "0x608060405260006002553480156200001657600080fd5b5033600160006101000a81548173ffffffffffffffffffffffffffffffffffffffff021916908373ffffffffffffffffffffffffffffffffffffffff1602179055506040518060400160405280601981526020017f57656c636f6d6520696e20452d534146414920506f7274616c0000000000000081525060009080519060200190620000a5929190620000ac565b506200015b565b828054600181600116156101000203166002900490600052602060002090601f016020900481019282601f10620000ef57805160ff191683800117855562000120565b8280016001018555821562000120579182015b828111156200011f57825182559160200191906001019062000102565b5b5090506200012f919062000133565b5090565b6200015891905b80821115620001545760008160009055506001016200013a565b5090565b90565b6115e3806200016b6000396000f3fe6080604052600436106100555760003560e01c8063018bea781461005a57806306fdde03146101d1578063bbd7235414610261578063c9e0a1671461029c578063dc146c01146102c7578063ea8978c2146102f5575b600080fd5b34801561006657600080fd5b506100936004803603602081101561007d57600080fd5b810190808035906020019092919050505061045e565b6040518088815260200180602001878152602001806020018673ffffffffffffffffffffffffffffffffffffffff1673ffffffffffffffffffffffffffffffffffffffff1681526020018515151515815260200184151515158152602001838103835289818151815260200191508051906020019080838360005b8381101561012957808201518184015260208101905061010e565b50505050905090810190601f1680156101565780820380516001836020036101000a031916815260200191505b50838103825287818151815260200191508051906020019080838360005b8381101561018f578082015181840152602081019050610174565b50505050905090810190601f1680156101bc5780820380516001836020036101000a031916815260200191505b50995050505050505050505060405180910390f35b3480156101dd57600080fd5b506101e661060a565b6040518080602001828103825283818151815260200191508051906020019080838360005b8381101561022657808201518184015260208101905061020b565b50505050905090810190601f1680156102535780820380516001836020036101000a031916815260200191505b509250505060405180910390f35b34801561026d57600080fd5b5061029a6004803603602081101561028457600080fd5b81019080803590602001909291905050506106a8565b005b3480156102a857600080fd5b506102b1610b8a565b6040518082815260200191505060405180910390f35b6102f3600480360360208110156102dd57600080fd5b8101908080359060200190929190505050610b90565b005b34801561030157600080fd5b5061045c6004803603606081101561031857600080fd5b810190808035906020019064010000000081111561033557600080fd5b82018360208201111561034757600080fd5b8035906020019184600183028401116401000000008311171561036957600080fd5b91908080601f016020809104026020016040519081016040528093929190818152602001838380828437600081840152601f19601f82011690508083019250505050505050919291929080359060200190929190803590602001906401000000008111156103d657600080fd5b8201836020820111156103e857600080fd5b8035906020019184600183028401116401000000008311171561040a57600080fd5b91908080601f016020809104026020016040519081016040528093929190818152602001838380828437600081840152601f19601f820116905080830192505050505050509192919290505050611171565b005b6003602052806000526040600020600091509050806000015490806001018054600181600116156101000203166002900480601f0160208091040260200160405190810160405280929190818152602001828054600181600116156101000203166002900480156105105780601f106104e557610100808354040283529160200191610510565b820191906000526020600020905b8154815290600101906020018083116104f357829003601f168201915b505050505090806002015490806003018054600181600116156101000203166002900480601f0160208091040260200160405190810160405280929190818152602001828054600181600116156101000203166002900480156105b45780601f10610589576101008083540402835291602001916105b4565b820191906000526020600020905b81548152906001019060200180831161059757829003601f168201915b5050505050908060040160009054906101000a900473ffffffffffffffffffffffffffffffffffffffff16908060040160149054906101000a900460ff16908060040160159054906101000a900460ff16905087565b60008054600181600116156101000203166002900480601f0160208091040260200160405190810160405280929190818152602001828054600181600116156101000203166002900480156106a05780601f10610675576101008083540402835291602001916106a0565b820191906000526020600020905b81548152906001019060200180831161068357829003601f168201915b505050505081565b600160009054906101000a900473ffffffffffffffffffffffffffffffffffffffff1673ffffffffffffffffffffffffffffffffffffffff163373ffffffffffffffffffffffffffffffffffffffff16141561070357600080fd5b61070b6114b2565b600360008381526020019081526020016000206040518060e001604052908160008201548152602001600182018054600181600116156101000203166002900480601f0160208091040260200160405190810160405280929190818152602001828054600181600116156101000203166002900480156107cc5780601f106107a1576101008083540402835291602001916107cc565b820191906000526020600020905b8154815290600101906020018083116107af57829003601f168201915b5050505050815260200160028201548152602001600382018054600181600116156101000203166002900480601f0160208091040260200160405190810160405280929190818152602001828054600181600116156101000203166002900480156108785780601f1061084d57610100808354040283529160200191610878565b820191906000526020600020905b81548152906001019060200180831161085b57829003601f168201915b505050505081526020016004820160009054906101000a900473ffffffffffffffffffffffffffffffffffffffff1673ffffffffffffffffffffffffffffffffffffffff1673ffffffffffffffffffffffffffffffffffffffff1681526020016004820160149054906101000a900460ff161515151581526020016004820160159054906101000a900460ff16151515158152505090508060a001511561091e57600080fd5b60018160a00190151590811515815250508060036000848152602001908152602001600020600082015181600001556020820151816001019080519060200190610969929190611509565b50604082015181600201556060820151816003019080519060200190610990929190611509565b5060808201518160040160006101000a81548173ffffffffffffffffffffffffffffffffffffffff021916908373ffffffffffffffffffffffffffffffffffffffff16021790555060a08201518160040160146101000a81548160ff02191690831515021790555060c08201518160040160156101000a81548160ff0219169083151502179055509050507f0717bae6e744ae1a22ac76a699a62fc59a15d9cdbffec83cfcd652edef33016881600001518260200151836060015133600160006040518087815260200180602001806020018673ffffffffffffffffffffffffffffffffffffffff1673ffffffffffffffffffffffffffffffffffffffff1681526020018515151515815260200184151515158152602001838103835288818151815260200191508051906020019080838360005b83811015610ae0578082015181840152602081019050610ac5565b50505050905090810190601f168015610b0d5780820380516001836020036101000a031916815260200191505b50838103825287818151815260200191508051906020019080838360005b83811015610b46578082015181840152602081019050610b2b565b50505050905090810190601f168015610b735780820380516001836020036101000a031916815260200191505b509850505050505050505060405180910390a15050565b60025481565b600160009054906101000a900473ffffffffffffffffffffffffffffffffffffffff1673ffffffffffffffffffffffffffffffffffffffff163373ffffffffffffffffffffffffffffffffffffffff161415610beb57600080fd5b610bf36114b2565b600360008381526020019081526020016000206040518060e001604052908160008201548152602001600182018054600181600116156101000203166002900480601f016020809104026020016040519081016040528092919081815260200182805460018160011615610100020316600290048015610cb45780601f10610c8957610100808354040283529160200191610cb4565b820191906000526020600020905b815481529060010190602001808311610c9757829003601f168201915b5050505050815260200160028201548152602001600382018054600181600116156101000203166002900480601f016020809104026020016040519081016040528092919081815260200182805460018160011615610100020316600290048015610d605780601f10610d3557610100808354040283529160200191610d60565b820191906000526020600020905b815481529060010190602001808311610d4357829003601f168201915b505050505081526020016004820160009054906101000a900473ffffffffffffffffffffffffffffffffffffffff1673ffffffffffffffffffffffffffffffffffffffff1673ffffffffffffffffffffffffffffffffffffffff1681526020016004820160149054906101000a900460ff161515151581526020016004820160159054906101000a900460ff161515151581525050905060008160800151905060008260000151118015610e1a5750600254826000015111155b610e2357600080fd5b8160400151341015610e3457600080fd5b8160c0015115610e4357600080fd5b3373ffffffffffffffffffffffffffffffffffffffff168173ffffffffffffffffffffffffffffffffffffffff161415610e7c57600080fd5b33826080019073ffffffffffffffffffffffffffffffffffffffff16908173ffffffffffffffffffffffffffffffffffffffff168152505060018260c00190151590811515815250508160036000858152602001908152602001600020600082015181600001556020820151816001019080519060200190610eff929190611509565b50604082015181600201556060820151816003019080519060200190610f26929190611509565b5060808201518160040160006101000a81548173ffffffffffffffffffffffffffffffffffffffff021916908373ffffffffffffffffffffffffffffffffffffffff16021790555060a08201518160040160146101000a81548160ff02191690831515021790555060c08201518160040160156101000a81548160ff0219169083151502179055509050508073ffffffffffffffffffffffffffffffffffffffff166108fc349081150290604051600060405180830381858888f19350505050158015610ff7573d6000803e3d6000fd5b507f3015bd28af7139a16c7f2f4702ffa2f70aa55b920417167b8e267b1aa2955c4d600254836020015184604001518560600151336001806040518088815260200180602001878152602001806020018673ffffffffffffffffffffffffffffffffffffffff1673ffffffffffffffffffffffffffffffffffffffff1681526020018515151515815260200184151515158152602001838103835289818151815260200191508051906020019080838360005b838110156110c55780820151818401526020810190506110aa565b50505050905090810190601f1680156110f25780820380516001836020036101000a031916815260200191505b50838103825287818151815260200191508051906020019080838360005b8381101561112b578082015181840152602081019050611110565b50505050905090810190601f1680156111585780820380516001836020036101000a031916815260200191505b50995050505050505050505060405180910390a1505050565b600160009054906101000a900473ffffffffffffffffffffffffffffffffffffffff1673ffffffffffffffffffffffffffffffffffffffff163373ffffffffffffffffffffffffffffffffffffffff1614156111cc57600080fd5b60008351116111da57600080fd5b600082116111e757600080fd5b60008151116111f557600080fd5b6002600081548092919060010191905055506040518060e0016040528060025481526020018481526020018381526020018281526020013373ffffffffffffffffffffffffffffffffffffffff16815260200160001515815260200160001515815250600360006002548152602001908152602001600020600082015181600001556020820151816001019080519060200190611293929190611509565b506040820151816002015560608201518160030190805190602001906112ba929190611509565b5060808201518160040160006101000a81548173ffffffffffffffffffffffffffffffffffffffff021916908373ffffffffffffffffffffffffffffffffffffffff16021790555060a08201518160040160146101000a81548160ff02191690831515021790555060c08201518160040160156101000a81548160ff0219169083151502179055509050507f55dd9a6c260af8c47ceaef6a705c065396fd57515f654b382855b5e088ded422600254848484336000806040518088815260200180602001878152602001806020018673ffffffffffffffffffffffffffffffffffffffff1673ffffffffffffffffffffffffffffffffffffffff1681526020018515151515815260200184151515158152602001838103835289818151815260200191508051906020019080838360005b838110156114065780820151818401526020810190506113eb565b50505050905090810190601f1680156114335780820380516001836020036101000a031916815260200191505b50838103825287818151815260200191508051906020019080838360005b8381101561146c578082015181840152602081019050611451565b50505050905090810190601f1680156114995780820380516001836020036101000a031916815260200191505b50995050505050505050505060405180910390a1505050565b6040518060e0016040528060008152602001606081526020016000815260200160608152602001600073ffffffffffffffffffffffffffffffffffffffff1681526020016000151581526020016000151581525090565b828054600181600116156101000203166002900490600052602060002090601f016020900481019282601f1061154a57805160ff1916838001178555611578565b82800160010185558215611578579182015b8281111561157757825182559160200191906001019061155c565b5b5090506115859190611589565b5090565b6115ab91905b808211156115a757600081600090555060010161158f565b5090565b9056fea265627a7a72315820531b6e0f7124476c4eb3d27c71b691d9d4953ab528eb9b9275a358fa5d914eb064736f6c63430005100032",
  "source": "// SPDX-License-Identifier: GPL-3.0\r\npragma solidity >=0.5.0 <0.8.0;\r\n\r\ncontract Consumer {\r\n    string public name;\r\n    address private admin;\r\n    uint256 public EwasteCount = 0;\r\n    mapping(uint256 => Ewaste) public ewastes;\r\n\r\n    struct Ewaste {\r\n        uint256 id;\r\n        string name;\r\n        uint256 price;\r\n        string description;\r\n        address payable owner;\r\n        bool approved;\r\n        bool purchased;\r\n    }\r\n\r\n    event EwasteCreated(\r\n        uint256 id,\r\n        string name,\r\n        uint256 price,\r\n        string description,\r\n        address payable owner,\r\n        bool approved,\r\n        bool purchased\r\n    );\r\n\r\n    event ApprovedEwaste(\r\n        uint256 id,\r\n        string name,\r\n        string description,\r\n        address owner,\r\n        bool approved,\r\n        bool purchased\r\n    );\r\n\r\n    event EwastePurchased(\r\n        uint256 id,\r\n        string name,\r\n        uint256 price,\r\n        string description,\r\n        address payable owner,\r\n        bool approved,\r\n        bool purchased\r\n    );\r\n\r\n    constructor() public {\r\n        admin = msg.sender;\r\n        name = \"Welcome in E-SAFAI Portal\";\r\n    }\r\n\r\n    modifier adminrights() {\r\n        require(msg.sender != admin);\r\n        _;\r\n    }\r\n\r\n    function createEwaste(\r\n        string memory _name,\r\n        uint256 _price,\r\n        string memory _description\r\n    ) public adminrights {\r\n        // Valid name\r\n        require(bytes(_name).length > 0);\r\n        // Valid price\r\n        require(_price > 0);\r\n        // Valid description\r\n        require(bytes(_description).length > 0);\r\n        // Increment eproduct count\r\n        EwasteCount++;\r\n        // Create the eproducts\r\n        ewastes[EwasteCount] = Ewaste(\r\n            EwasteCount,\r\n            _name,\r\n            _price,\r\n            _description,\r\n            msg.sender,\r\n            false,\r\n            false\r\n        );\r\n\r\n        emit EwasteCreated(\r\n            EwasteCount,\r\n            _name,\r\n            _price,\r\n            _description,\r\n            msg.sender,\r\n            false,\r\n            false\r\n        );\r\n    }\r\n\r\n    function approveEwaste(uint256 _id) public adminrights {\r\n        // Fetch the eproduct\r\n        Ewaste memory _ewaste = ewastes[_id];\r\n        // The eproduct has not been approved already\r\n        require(!_ewaste.approved);\r\n        // approved\r\n        _ewaste.approved = true;\r\n        // Update the eproduct\r\n        ewastes[_id] = _ewaste;\r\n\r\n        emit ApprovedEwaste(\r\n            _ewaste.id,\r\n            _ewaste.name,\r\n            _ewaste.description,\r\n            msg.sender,\r\n            true,\r\n            false\r\n        );\r\n    }\r\n\r\n    function purchaseEwaste(uint256 _id) public payable adminrights {\r\n        // Fetch the eproduct\r\n        Ewaste memory _ewaste = ewastes[_id];\r\n        // Fetch the owner\r\n        address payable _seller = _ewaste.owner;\r\n        // Make sure the product has a valid id\r\n        require(_ewaste.id > 0 && _ewaste.id <= EwasteCount);\r\n        // There is enough Ether in the transaction\r\n        require(msg.value >= _ewaste.price);\r\n        // The eproduct has not been purchased already\r\n        require(!_ewaste.purchased);\r\n        // The buyer is not the seller\r\n        require(_seller != msg.sender);\r\n        // Transfer ownership to the approver\r\n        _ewaste.owner = msg.sender;\r\n        // purchased\r\n        _ewaste.purchased = true;\r\n        // Update the eproduct\r\n        ewastes[_id] = _ewaste;\r\n        // Pay the seller\r\n        address(_seller).transfer(msg.value);\r\n\r\n        emit EwastePurchased(\r\n            EwasteCount,\r\n            _ewaste.name,\r\n            _ewaste.price,\r\n            _ewaste.description,\r\n            msg.sender,\r\n            true,\r\n            true\r\n        );\r\n    }\r\n}\r\n",
  "sourcePath": "C:/Users/Neel/Desktop/esafai/contracts/Consumer.sol",
  "compiler": {
    "name": "solc",
    "version": "0.5.16+commit.9c3226ce.Emscripten.clang"
  },
  "schemaVersion": "3.3.4",
  "updatedAt": "2021-06-16T13:50:23.151Z",
  "networkType": "ethereum",
  "devdoc": {
    "methods": {}
  },
  "userdoc": {
    "methods": {}
  }
}