{
  "contractName": "Producer",
  "abi": [
    {
      "inputs": [],
      "payable": false,
      "stateMutability": "nonpayable",
      "type": "constructor"
    },
    {
      "anonymous": false,
      "inputs": [
        {
          "indexed": false,
          "internalType": "uint256",
          "name": "id",
          "type": "uint256"
        },
        {
          "indexed": false,
          "internalType": "string",
          "name": "name",
          "type": "string"
        },
        {
          "indexed": false,
          "internalType": "string",
          "name": "description",
          "type": "string"
        },
        {
          "indexed": false,
          "internalType": "address",
          "name": "owner",
          "type": "address"
        },
        {
          "indexed": false,
          "internalType": "bool",
          "name": "approved",
          "type": "bool"
        },
        {
          "indexed": false,
          "internalType": "bool",
          "name": "purchased",
          "type": "bool"
        }
      ],
      "name": "ApprovedEproduct",
      "type": "event"
    },
    {
      "anonymous": false,
      "inputs": [
        {
          "indexed": false,
          "internalType": "uint256",
          "name": "id",
          "type": "uint256"
        },
        {
          "indexed": false,
          "internalType": "string",
          "name": "name",
          "type": "string"
        },
        {
          "indexed": false,
          "internalType": "uint256",
          "name": "price",
          "type": "uint256"
        },
        {
          "indexed": false,
          "internalType": "string",
          "name": "description",
          "type": "string"
        },
        {
          "indexed": false,
          "internalType": "address payable",
          "name": "owner",
          "type": "address"
        },
        {
          "indexed": false,
          "internalType": "bool",
          "name": "approved",
          "type": "bool"
        },
        {
          "indexed": false,
          "internalType": "bool",
          "name": "purchased",
          "type": "bool"
        }
      ],
      "name": "EproductCreated",
      "type": "event"
    },
    {
      "anonymous": false,
      "inputs": [
        {
          "indexed": false,
          "internalType": "uint256",
          "name": "id",
          "type": "uint256"
        },
        {
          "indexed": false,
          "internalType": "string",
          "name": "name",
          "type": "string"
        },
        {
          "indexed": false,
          "internalType": "uint256",
          "name": "price",
          "type": "uint256"
        },
        {
          "indexed": false,
          "internalType": "string",
          "name": "description",
          "type": "string"
        },
        {
          "indexed": false,
          "internalType": "address payable",
          "name": "owner",
          "type": "address"
        },
        {
          "indexed": false,
          "internalType": "bool",
          "name": "approved",
          "type": "bool"
        },
        {
          "indexed": false,
          "internalType": "bool",
          "name": "purchased",
          "type": "bool"
        }
      ],
      "name": "EproductPurchased",
      "type": "event"
    },
    {
      "constant": true,
      "inputs": [],
      "name": "EproductCount",
      "outputs": [
        {
          "internalType": "uint256",
          "name": "",
          "type": "uint256"
        }
      ],
      "payable": false,
      "stateMutability": "view",
      "type": "function"
    },
    {
      "constant": true,
      "inputs": [
        {
          "internalType": "uint256",
          "name": "",
          "type": "uint256"
        }
      ],
      "name": "eproducts",
      "outputs": [
        {
          "internalType": "uint256",
          "name": "id",
          "type": "uint256"
        },
        {
          "internalType": "string",
          "name": "name",
          "type": "string"
        },
        {
          "internalType": "uint256",
          "name": "price",
          "type": "uint256"
        },
        {
          "internalType": "string",
          "name": "description",
          "type": "string"
        },
        {
          "internalType": "address payable",
          "name": "owner",
          "type": "address"
        },
        {
          "internalType": "bool",
          "name": "approved",
          "type": "bool"
        },
        {
          "internalType": "bool",
          "name": "purchased",
          "type": "bool"
        }
      ],
      "payable": false,
      "stateMutability": "view",
      "type": "function"
    },
    {
      "constant": true,
      "inputs": [],
      "name": "name",
      "outputs": [
        {
          "internalType": "string",
          "name": "",
          "type": "string"
        }
      ],
      "payable": false,
      "stateMutability": "view",
      "type": "function"
    },
    {
      "constant": false,
      "inputs": [
        {
          "internalType": "string",
          "name": "_name",
          "type": "string"
        },
        {
          "internalType": "uint256",
          "name": "_price",
          "type": "uint256"
        },
        {
          "internalType": "string",
          "name": "_description",
          "type": "string"
        }
      ],
      "name": "createEproduct",
      "outputs": [],
      "payable": false,
      "stateMutability": "nonpayable",
      "type": "function"
    },
    {
      "constant": false,
      "inputs": [
        {
          "internalType": "uint256",
          "name": "_id",
          "type": "uint256"
        }
      ],
      "name": "approveEproduct",
      "outputs": [],
      "payable": false,
      "stateMutability": "nonpayable",
      "type": "function"
    },
    {
      "constant": false,
      "inputs": [
        {
          "internalType": "uint256",
          "name": "_id",
          "type": "uint256"
        }
      ],
      "name": "purchaseEproduct",
      "outputs": [],
      "payable": true,
      "stateMutability": "payable",
      "type": "function"
    }
  ],
  "bytecode": "0x608060405260006002553480156200001657600080fd5b5033600160006101000a81548173ffffffffffffffffffffffffffffffffffffffff021916908373ffffffffffffffffffffffffffffffffffffffff1602179055506040518060400160405280601981526020017f57656c636f6d6520696e20452d534146414920506f7274616c0000000000000081525060009080519060200190620000a5929190620000ac565b506200015b565b828054600181600116156101000203166002900490600052602060002090601f016020900481019282601f10620000ef57805160ff191683800117855562000120565b8280016001018555821562000120579182015b828111156200011f57825182559160200191906001019062000102565b5b5090506200012f919062000133565b5090565b6200015891905b80821115620001545760008160009055506001016200013a565b5090565b90565b6114d2806200016b6000396000f3fe6080604052600436106100555760003560e01c806306fdde031461005a57806341bd199d146100ea5780639955bb1a14610261578063c39a76901461028f578063f3ea4282146103f8578063f68ad6c514610423575b600080fd5b34801561006657600080fd5b5061006f61045e565b6040518080602001828103825283818151815260200191508051906020019080838360005b838110156100af578082015181840152602081019050610094565b50505050905090810190601f1680156100dc5780820380516001836020036101000a031916815260200191505b509250505060405180910390f35b3480156100f657600080fd5b506101236004803603602081101561010d57600080fd5b81019080803590602001909291905050506104fc565b6040518088815260200180602001878152602001806020018673ffffffffffffffffffffffffffffffffffffffff1673ffffffffffffffffffffffffffffffffffffffff1681526020018515151515815260200184151515158152602001838103835289818151815260200191508051906020019080838360005b838110156101b957808201518184015260208101905061019e565b50505050905090810190601f1680156101e65780820380516001836020036101000a031916815260200191505b50838103825287818151815260200191508051906020019080838360005b8381101561021f578082015181840152602081019050610204565b50505050905090810190601f16801561024c5780820380516001836020036101000a031916815260200191505b50995050505050505050505060405180910390f35b61028d6004803603602081101561027757600080fd5b81019080803590602001909291905050506106a8565b005b34801561029b57600080fd5b506103f6600480360360608110156102b257600080fd5b81019080803590602001906401000000008111156102cf57600080fd5b8201836020820111156102e157600080fd5b8035906020019184600183028401116401000000008311171561030357600080fd5b91908080601f016020809104026020016040519081016040528093929190818152602001838380828437600081840152601f19601f820116905080830192505050505050509192919290803590602001909291908035906020019064010000000081111561037057600080fd5b82018360208201111561038257600080fd5b803590602001918460018302840111640100000000831117156103a457600080fd5b91908080601f016020809104026020016040519081016040528093929190818152602001838380828437600081840152601f19601f820116905080830192505050505050509192919290505050610c2e565b005b34801561040457600080fd5b5061040d610f14565b6040518082815260200191505060405180910390f35b34801561042f57600080fd5b5061045c6004803603602081101561044657600080fd5b8101908080359060200190929190505050610f1a565b005b60008054600181600116156101000203166002900480601f0160208091040260200160405190810160405280929190818152602001828054600181600116156101000203166002900480156104f45780601f106104c9576101008083540402835291602001916104f4565b820191906000526020600020905b8154815290600101906020018083116104d757829003601f168201915b505050505081565b6003602052806000526040600020600091509050806000015490806001018054600181600116156101000203166002900480601f0160208091040260200160405190810160405280929190818152602001828054600181600116156101000203166002900480156105ae5780601f10610583576101008083540402835291602001916105ae565b820191906000526020600020905b81548152906001019060200180831161059157829003601f168201915b505050505090806002015490806003018054600181600116156101000203166002900480601f0160208091040260200160405190810160405280929190818152602001828054600181600116156101000203166002900480156106525780601f1061062757610100808354040283529160200191610652565b820191906000526020600020905b81548152906001019060200180831161063557829003601f168201915b5050505050908060040160009054906101000a900473ffffffffffffffffffffffffffffffffffffffff16908060040160149054906101000a900460ff16908060040160159054906101000a900460ff16905087565b6106b06113a1565b600360008381526020019081526020016000206040518060e001604052908160008201548152602001600182018054600181600116156101000203166002900480601f0160208091040260200160405190810160405280929190818152602001828054600181600116156101000203166002900480156107715780601f1061074657610100808354040283529160200191610771565b820191906000526020600020905b81548152906001019060200180831161075457829003601f168201915b5050505050815260200160028201548152602001600382018054600181600116156101000203166002900480601f01602080910402602001604051908101604052809291908181526020018280546001816001161561010002031660029004801561081d5780601f106107f25761010080835404028352916020019161081d565b820191906000526020600020905b81548152906001019060200180831161080057829003601f168201915b505050505081526020016004820160009054906101000a900473ffffffffffffffffffffffffffffffffffffffff1673ffffffffffffffffffffffffffffffffffffffff1673ffffffffffffffffffffffffffffffffffffffff1681526020016004820160149054906101000a900460ff161515151581526020016004820160159054906101000a900460ff1615151515815250509050600081608001519050600082600001511180156108d75750600254826000015111155b6108e057600080fd5b81604001513410156108f157600080fd5b8160c001511561090057600080fd5b3373ffffffffffffffffffffffffffffffffffffffff168173ffffffffffffffffffffffffffffffffffffffff16141561093957600080fd5b33826080019073ffffffffffffffffffffffffffffffffffffffff16908173ffffffffffffffffffffffffffffffffffffffff168152505060018260c001901515908115158152505081600360008581526020019081526020016000206000820151816000015560208201518160010190805190602001906109bc9291906113f8565b506040820151816002015560608201518160030190805190602001906109e39291906113f8565b5060808201518160040160006101000a81548173ffffffffffffffffffffffffffffffffffffffff021916908373ffffffffffffffffffffffffffffffffffffffff16021790555060a08201518160040160146101000a81548160ff02191690831515021790555060c08201518160040160156101000a81548160ff0219169083151502179055509050508073ffffffffffffffffffffffffffffffffffffffff166108fc349081150290604051600060405180830381858888f19350505050158015610ab4573d6000803e3d6000fd5b507f74266523a60e15c7d1c1f58044c57c9272d5a78696d64283e4f8cce9cd52d557600254836020015184604001518560600151336001806040518088815260200180602001878152602001806020018673ffffffffffffffffffffffffffffffffffffffff1673ffffffffffffffffffffffffffffffffffffffff1681526020018515151515815260200184151515158152602001838103835289818151815260200191508051906020019080838360005b83811015610b82578082015181840152602081019050610b67565b50505050905090810190601f168015610baf5780820380516001836020036101000a031916815260200191505b50838103825287818151815260200191508051906020019080838360005b83811015610be8578082015181840152602081019050610bcd565b50505050905090810190601f168015610c155780820380516001836020036101000a031916815260200191505b50995050505050505050505060405180910390a1505050565b6000835111610c3c57600080fd5b60008211610c4957600080fd5b6000815111610c5757600080fd5b6002600081548092919060010191905055506040518060e0016040528060025481526020018481526020018381526020018281526020013373ffffffffffffffffffffffffffffffffffffffff16815260200160001515815260200160001515815250600360006002548152602001908152602001600020600082015181600001556020820151816001019080519060200190610cf59291906113f8565b50604082015181600201556060820151816003019080519060200190610d1c9291906113f8565b5060808201518160040160006101000a81548173ffffffffffffffffffffffffffffffffffffffff021916908373ffffffffffffffffffffffffffffffffffffffff16021790555060a08201518160040160146101000a81548160ff02191690831515021790555060c08201518160040160156101000a81548160ff0219169083151502179055509050507fb341cd4edcf7b138c0a85b58e53782375b456759c878549d077c68a43dc6def2600254848484336000806040518088815260200180602001878152602001806020018673ffffffffffffffffffffffffffffffffffffffff1673ffffffffffffffffffffffffffffffffffffffff1681526020018515151515815260200184151515158152602001838103835289818151815260200191508051906020019080838360005b83811015610e68578082015181840152602081019050610e4d565b50505050905090810190601f168015610e955780820380516001836020036101000a031916815260200191505b50838103825287818151815260200191508051906020019080838360005b83811015610ece578082015181840152602081019050610eb3565b50505050905090810190601f168015610efb5780820380516001836020036101000a031916815260200191505b50995050505050505050505060405180910390a1505050565b60025481565b610f226113a1565b600360008381526020019081526020016000206040518060e001604052908160008201548152602001600182018054600181600116156101000203166002900480601f016020809104026020016040519081016040528092919081815260200182805460018160011615610100020316600290048015610fe35780601f10610fb857610100808354040283529160200191610fe3565b820191906000526020600020905b815481529060010190602001808311610fc657829003601f168201915b5050505050815260200160028201548152602001600382018054600181600116156101000203166002900480601f01602080910402602001604051908101604052809291908181526020018280546001816001161561010002031660029004801561108f5780601f106110645761010080835404028352916020019161108f565b820191906000526020600020905b81548152906001019060200180831161107257829003601f168201915b505050505081526020016004820160009054906101000a900473ffffffffffffffffffffffffffffffffffffffff1673ffffffffffffffffffffffffffffffffffffffff1673ffffffffffffffffffffffffffffffffffffffff1681526020016004820160149054906101000a900460ff161515151581526020016004820160159054906101000a900460ff16151515158152505090508060a001511561113557600080fd5b60018160a001901515908115158152505080600360008481526020019081526020016000206000820151816000015560208201518160010190805190602001906111809291906113f8565b506040820151816002015560608201518160030190805190602001906111a79291906113f8565b5060808201518160040160006101000a81548173ffffffffffffffffffffffffffffffffffffffff021916908373ffffffffffffffffffffffffffffffffffffffff16021790555060a08201518160040160146101000a81548160ff02191690831515021790555060c08201518160040160156101000a81548160ff0219169083151502179055509050507f2b93c14cf7fdbb5005d538fcf8407ca53ad8c07a238c40861d8e93b9e9122a8681600001518260200151836060015133600160006040518087815260200180602001806020018673ffffffffffffffffffffffffffffffffffffffff1673ffffffffffffffffffffffffffffffffffffffff1681526020018515151515815260200184151515158152602001838103835288818151815260200191508051906020019080838360005b838110156112f75780820151818401526020810190506112dc565b50505050905090810190601f1680156113245780820380516001836020036101000a031916815260200191505b50838103825287818151815260200191508051906020019080838360005b8381101561135d578082015181840152602081019050611342565b50505050905090810190601f16801561138a5780820380516001836020036101000a031916815260200191505b509850505050505050505060405180910390a15050565b6040518060e0016040528060008152602001606081526020016000815260200160608152602001600073ffffffffffffffffffffffffffffffffffffffff1681526020016000151581526020016000151581525090565b828054600181600116156101000203166002900490600052602060002090601f016020900481019282601f1061143957805160ff1916838001178555611467565b82800160010185558215611467579182015b8281111561146657825182559160200191906001019061144b565b5b5090506114749190611478565b5090565b61149a91905b8082111561149657600081600090555060010161147e565b5090565b9056fea265627a7a723158200caf7f8eb4dd543626681528c16bcfd810dc6bbf7dd9528e2f28e415eabf5ec264736f6c63430005100032",
  "source": "// SPDX-License-Identifier: GPL-3.0\r\npragma solidity >=0.5.0 <0.8.0;\r\n\r\ncontract Producer {\r\n    string public name;\r\n    address private admin;\r\n    uint256 public EproductCount = 0;\r\n    mapping(uint256 => Eproduct) public eproducts;\r\n\r\n    struct Eproduct {\r\n        uint256 id;\r\n        string name;\r\n        uint256 price;\r\n        string description;\r\n        address payable owner;\r\n        bool approved;\r\n        bool purchased;\r\n    }\r\n\r\n    event EproductCreated(\r\n        uint256 id,\r\n        string name,\r\n        uint256 price,\r\n        string description,\r\n        address payable owner,\r\n        bool approved,\r\n        bool purchased\r\n    );\r\n\r\n    event ApprovedEproduct(\r\n        uint256 id,\r\n        string name,\r\n        string description,\r\n        address owner,\r\n        bool approved,\r\n        bool purchased\r\n    );\r\n\r\n    event EproductPurchased(\r\n        uint256 id,\r\n        string name,\r\n        uint256 price,\r\n        string description,\r\n        address payable owner,\r\n        bool approved,\r\n        bool purchased\r\n    );\r\n\r\n    constructor() public {\r\n        admin = msg.sender;\r\n        name = \"Welcome in E-SAFAI Portal\";\r\n    }\r\n\r\n    modifier adminrights() {\r\n        require(msg.sender != admin);\r\n        _;\r\n    }\r\n\r\n    function createEproduct(\r\n        string memory _name,\r\n        uint256 _price,\r\n        string memory _description\r\n    ) public {\r\n        // Valid name\r\n        require(bytes(_name).length > 0);\r\n        // Valid price\r\n        require(_price > 0);\r\n        // Valid description\r\n        require(bytes(_description).length > 0);\r\n        // Increment eproduct count\r\n        EproductCount++;\r\n        // Create the eproducts\r\n        eproducts[EproductCount] = Eproduct(\r\n            EproductCount,\r\n            _name,\r\n            _price,\r\n            _description,\r\n            msg.sender,\r\n            false,\r\n            false\r\n        );\r\n\r\n        emit EproductCreated(\r\n            EproductCount,\r\n            _name,\r\n            _price,\r\n            _description,\r\n            msg.sender,\r\n            false,\r\n            false\r\n        );\r\n    }\r\n\r\n    function approveEproduct(uint256 _id) public {\r\n        // Fetch the eproduct\r\n        Eproduct memory _eproduct = eproducts[_id];\r\n        // The eproduct has not been approved already\r\n        require(!_eproduct.approved);\r\n        // approved\r\n        _eproduct.approved = true;\r\n        // Update the eproduct\r\n        eproducts[_id] = _eproduct;\r\n\r\n        emit ApprovedEproduct(\r\n            _eproduct.id,\r\n            _eproduct.name,\r\n            _eproduct.description,\r\n            msg.sender,\r\n            true,\r\n            false\r\n        );\r\n    }\r\n\r\n    function purchaseEproduct(uint256 _id) public payable {\r\n        // Fetch the eproduct\r\n        Eproduct memory _eproduct = eproducts[_id];\r\n        // Fetch the owner\r\n        address payable _seller = _eproduct.owner;\r\n        // Make sure the product has a valid id\r\n        require(_eproduct.id > 0 && _eproduct.id <= EproductCount);\r\n        // There is enough Ether in the transaction\r\n        require(msg.value >= _eproduct.price);\r\n        // The eproduct has not been purchased already\r\n        require(!_eproduct.purchased);\r\n        // The buyer is not the seller\r\n        require(_seller != msg.sender);\r\n        // Transfer ownership to the approver\r\n        _eproduct.owner = msg.sender;\r\n        // purchased\r\n        _eproduct.purchased = true;\r\n        // Update the eproduct\r\n        eproducts[_id] = _eproduct;\r\n        // Pay the seller\r\n        address(_seller).transfer(msg.value);\r\n\r\n        emit EproductPurchased(\r\n            EproductCount,\r\n            _eproduct.name,\r\n            _eproduct.price,\r\n            _eproduct.description,\r\n            msg.sender,\r\n            true,\r\n            true\r\n        );\r\n    }\r\n}\r\n",
  "sourcePath": "C:/Users/Neel/Desktop/esafai/contracts/Producer.sol",
  "compiler": {
    "name": "solc",
    "version": "0.5.16+commit.9c3226ce.Emscripten.clang"
  },
  "schemaVersion": "3.3.4",
  "updatedAt": "2021-06-16T13:50:23.163Z",
  "networkType": "ethereum",
  "devdoc": {
    "methods": {}
  },
  "userdoc": {
    "methods": {}
  }
}