{
  "contractName": "Registration",
  "abi": [
    {
      "inputs": [],
      "payable": false,
      "stateMutability": "nonpayable",
      "type": "constructor"
    },
    {
      "anonymous": false,
      "inputs": [
        {
          "indexed": false,
          "internalType": "address",
          "name": "user",
          "type": "address"
        },
        {
          "indexed": false,
          "internalType": "bool",
          "name": "registered",
          "type": "bool"
        }
      ],
      "name": "approve",
      "type": "event"
    },
    {
      "anonymous": false,
      "inputs": [
        {
          "indexed": false,
          "internalType": "address",
          "name": "user",
          "type": "address"
        },
        {
          "indexed": false,
          "internalType": "bool",
          "name": "registered",
          "type": "bool"
        }
      ],
      "name": "register",
      "type": "event"
    },
    {
      "constant": true,
      "inputs": [
        {
          "internalType": "uint256",
          "name": "",
          "type": "uint256"
        }
      ],
      "name": "registrationDetails",
      "outputs": [
        {
          "internalType": "uint256",
          "name": "userId",
          "type": "uint256"
        },
        {
          "internalType": "address",
          "name": "userAddress",
          "type": "address"
        },
        {
          "internalType": "bool",
          "name": "registered",
          "type": "bool"
        }
      ],
      "payable": false,
      "stateMutability": "view",
      "type": "function"
    },
    {
      "constant": false,
      "inputs": [],
      "name": "UserRegister",
      "outputs": [],
      "payable": false,
      "stateMutability": "nonpayable",
      "type": "function"
    },
    {
      "constant": false,
      "inputs": [
        {
          "internalType": "uint256",
          "name": "_userId",
          "type": "uint256"
        }
      ],
      "name": "ApprovedUser",
      "outputs": [],
      "payable": false,
      "stateMutability": "nonpayable",
      "type": "function"
    }
  ],
  "bytecode": "0x608060405234801561001057600080fd5b50336000806101000a81548173ffffffffffffffffffffffffffffffffffffffff021916908373ffffffffffffffffffffffffffffffffffffffff160217905550600060018190555061056d806100686000396000f3fe608060405234801561001057600080fd5b50600436106100415760003560e01c80632c454fc61461004657806349aec04d146100c657806354b4d15c146100f4575b600080fd5b6100726004803603602081101561005c57600080fd5b81019080803590602001909291905050506100fe565b604051808481526020018373ffffffffffffffffffffffffffffffffffffffff1673ffffffffffffffffffffffffffffffffffffffff16815260200182151515158152602001935050505060405180910390f35b6100f2600480360360208110156100dc57600080fd5b8101908080359060200190929190505050610155565b005b6100fc610373565b005b60026020528060005260406000206000915090508060000154908060010160009054906101000a900473ffffffffffffffffffffffffffffffffffffffff16908060010160149054906101000a900460ff16905083565b6000809054906101000a900473ffffffffffffffffffffffffffffffffffffffff1673ffffffffffffffffffffffffffffffffffffffff163373ffffffffffffffffffffffffffffffffffffffff16146101ae57600080fd5b60006002600083815260200190815260200160002090508060010160149054906101000a900460ff161561022d576040517f08c379a00000000000000000000000000000000000000000000000000000000081526004018080602001828103825260288152602001806105116028913960400191505060405180910390fd5b60018160010160146101000a81548160ff0219169083151502179055508060026000848152602001908152602001600020600082015481600001556001820160009054906101000a900473ffffffffffffffffffffffffffffffffffffffff168160010160006101000a81548173ffffffffffffffffffffffffffffffffffffffff021916908373ffffffffffffffffffffffffffffffffffffffff1602179055506001820160149054906101000a900460ff168160010160146101000a81548160ff0219169083151502179055509050507f3d140d21718b0823b792c2ea03180df160db900c37a5822fb88a64344c397db2336001604051808373ffffffffffffffffffffffffffffffffffffffff1673ffffffffffffffffffffffffffffffffffffffff168152602001821515151581526020019250505060405180910390a15050565b6000809054906101000a900473ffffffffffffffffffffffffffffffffffffffff1673ffffffffffffffffffffffffffffffffffffffff163373ffffffffffffffffffffffffffffffffffffffff1614156103cd57600080fd5b600160008154809291906001019190505550604051806060016040528060015481526020013373ffffffffffffffffffffffffffffffffffffffff168152602001600015158152506002600060015481526020019081526020016000206000820151816000015560208201518160010160006101000a81548173ffffffffffffffffffffffffffffffffffffffff021916908373ffffffffffffffffffffffffffffffffffffffff16021790555060408201518160010160146101000a81548160ff0219169083151502179055509050507fab01b4692bd902b4859dc270e9c93f448cea806bbd1a2d031219e834ccd07554336000604051808373ffffffffffffffffffffffffffffffffffffffff1673ffffffffffffffffffffffffffffffffffffffff168152602001821515151581526020019250505060405180910390a156fe596f757220726567697374726174696f6e20686173206e6f74206265656e20617070726f76656421a265627a7a72315820cb49ebfb12adf019483e60a4938eceaf9aca3c1e094501f73367842c71f69a5b64736f6c63430005100032",
  "source": "// SPDX-License-Identifier: GPL-3.0\r\npragma solidity >=0.5.0 <0.8.0;\r\n\r\ncontract Registration{\r\n    \r\n    event register(address user, bool registered);\r\n    event approve(address user, bool registered);\r\n    \r\n    struct RegistrationDetail {\r\n        uint userId;\r\n        address userAddress;\r\n        bool registered;\r\n    }\r\n    \r\n    address admin;\r\n    uint userAddressCount;\r\n    mapping(uint => RegistrationDetail) public registrationDetails;\r\n    \r\n    modifier permission() {\r\n        require(msg.sender == admin);\r\n        _;\r\n    }\r\n    \r\n    constructor() public{\r\n        admin = msg.sender;\r\n        userAddressCount = 0;\r\n    }\r\n    \r\n    function UserRegister() public {\r\n        require(msg.sender != admin);\r\n        userAddressCount++;\r\n        registrationDetails[userAddressCount] = RegistrationDetail(userAddressCount, msg.sender, false);\r\n        \r\n        emit register(msg.sender, false);\r\n    }\r\n    \r\n    function ApprovedUser(uint _userId) public permission {\r\n        RegistrationDetail storage _registrationDetails = registrationDetails[_userId];\r\n        require(!_registrationDetails.registered, 'Your registration has not been approved!');\r\n        _registrationDetails.registered = true;\r\n        registrationDetails[_userId] = _registrationDetails;\r\n\r\n        emit approve(msg.sender, true);\r\n    }\r\n}",
  "sourcePath": "C:/Users/Neel/Desktop/esafai/contracts/Registration.sol",
  "compiler": {
    "name": "solc",
    "version": "0.5.16+commit.9c3226ce.Emscripten.clang"
  },
  "schemaVersion": "3.3.4",
  "updatedAt": "2021-06-16T13:49:33.792Z",
  "devdoc": {
    "methods": {}
  },
  "userdoc": {
    "methods": {}
  }
}